:0600000020C0FECFFDCF81
:10000600FCCFFBCFD7C0F9CFF8CFF7CF9BC0F5CF4A
:10001600F4CFF3CFF2CFF1CFF0CFEFCFEECFEDCFDE
:1000260081F34961332505F101210000000000003C
:10003600000090010A00040030000000F894EE274A
:10004600ECBBF1E0FBBFEBBFE5BFF8E1F1BDE1BD05
:100056008DE0A2E0BB27ED938A95E9F780E094E076
:10006600A0E6ED930197E9F7EAE3F0E08591959133
:10007600009761F0A591B59105901590BF01F0012B
:1000860005900D920197E1F7FB01F0CFEFE5EDBF8B
:10009600E4E0EEBFC0E6D1E000C01FEF0FEF3FEF98
:1000A60021E055E0C7D11FEF2F5FEAD118F42530C4
:1000B60008F024E0E5D110F0E8D108F003C02530BF
:1000C60008F023E0E2D110F0E5D108F003C02530B6
:1000D60008F022E0DFD118F0253008F021E05F5F5C
:1000E600583008F055E0E22FDAD1E52FD8D1DCD12F
:1000F600A1D0553011F4DDD13491563011F4DED152
:100106003491573011F4DFD13491D40193D021309A
:1001160029F4E62DDDD1EA5DFF4F0491223011F47A
:10012600C8D10491233011F4C9D10491243011F4BB
:10013600CAD104911A930A93A32F6BD19FD054D19D
:10014600B2CFFFCF6A937A938A939A93AA93BA937C
:10015600EA93FA93EFB7EA93A0E6B1E077D2EF5FBE
:10016600FF4F6F4F7F4F77D2A0916001B091610131
:100176008091620190916301A336E0E0BE07E0E062
:100186008E07E0E09E0758F0A5D1E0E0E093640119
:10019600E0936501E0936601E0936701BB24E99172
:1001A600EFBFF991E991B991A991999189917991C5
:1001B600699118950A921A926A937A938A939A93F6
:1001C600AA93BA93EA93FA93EFB7EA93BB2019F18D
:1001D600E0916001F09161016091620170916301AB
:1001E600A0E0B1E080E090E0B8D1DF01CB01E2B75A
:1001F6006FD1AED19CD1A0E9B0ED83E090E0E5D11E
:10020600E0936401F0936501609366017093670162
:10021600E1E0E2BF5FD1E1E0BE2EE991EFBFF991E7
:10022600E991B991A99199918991799169911990D9
:1002360009901895BA93AA9357D1EAE0F0E0EAD16B
:100246005E2E52D1E4E6F0E0E5D1DF01EAE0F0E02F
:10025600B7D14E2E49D1E8EEF3E0DCD1DF01E4E67A
:10026600F0E0AED17E2E40D1E0E1F7E2D3D1DF015E
:10027600E8EEF3E0A5D16E2E2296089599990FC067
:1002860036D169F4F6013A966F01EEEDF3E0EC151E
:10029600FD0514F4CC24DD24E1E0E0936A0198998D
:1002A6000FC025D169F4F6013A976F010024C014F6
:1002B600D0041CF4EEEDF3E06F01E1E0E0936A0197
:1002C60016D191F0ACE6B1E016D1A0916C01B091D7
:1002D6006D01A139E1E0BE0738F0E0E0E0936A0184
:1002E600E0936C01E0936D019A9903C0E1E0E0931D
:1002F6007201E0917201E03021F0E0916B01E03093
:1003060009F01FC0AEE6B1E0F6D0A0916E01B09143
:100316006F01A134E6E0BE07A0F09A9904C0E1E0BF
:10032600E0936B010EC0EDD0F4D011F0E0E001C017
:10033600E1E0E0937301EDD011F0A3E001C0A2E08B
:1003460035D0E0916B01E030A1F0A0E7B1E0D3D069
:10035600E4D0A0917001B0917101A13DE7E0BE0724
:1003660040F0CFD0E0E0E0936B01E0937001E093C2
:100376007101ECB5FDB5DF01ECE3F0E00ED1DF0174
:10038600F601EA1BFB0BE0936801F09369018CD040
:10039600119734F4E0E0E0936801E0936901BDD081
:1003A600B8D011F0979A01C097980895AA93E8815A
:1003B6008FD0309719F4E0E0B5D014C0E130A0E05A
:1003C600FA0719F4E0E4AED00DC0E230A0E0FA0777
:1003D60019F4E0E4EEBD06C0E330A0E0FA0711F43C
:1003E600E7E4EEBD21960895A0917401B0917501E0
:1003F600A132E3E0BE0748F0809064019090650169
:10040600E0E0E0937401E0937501A4E7B1E073D0F6
:100416000895AA93C298EA81EFB9779BFECFE88147
:10042600EFB9779BFECFE981EFB9779BFECFC29AF2
:1004360023960895E0E0E8BBEEE2E7BBEFE1E5BB1B
:10044600E0E0E4BBE0E2E2BBE0E8E1BBE3E0E3BF1F
:10045600E0E0E2BFEFBDE0E465D0E0E0E7BDE6BD89
:10046600EBBDEABDE9BDE8BDE1E2E9BFE0E8E8B918
:10047600E0E0E0BFE3E5EDB9E0E0EEB97894089599
:10048600EAE0F0E08E169F060895E4E6F0E08E16A8
:100496009F060895E8EEF3E08E169F060895A1E004
:1004A6004FD0E0951E230895A0916801B09169018F
:1004B6000895E72DF0E0EA5DFF4F0895E42DF0E0A2
:1004C600EA5DFF4F0895E52DF0E0EA5DFF4F0895E0
:1004D600F0E00895E0E0E0936001E0936101E093CD
:1004E6006201E09363010895A881B9810895E091BE
:1004F6006A01E0300895ED91FD913196FE93EE93F9
:100506000895E0E0E0937201E0936E01E0936F01DD
:100516000895E0917301E0300895E0E0E0937301FF
:10052600A1E044CFEEBDE0E0EDBDECBD0895EA0FDD
:10053600FB1F681F791F0895F195E195F040089516
:10054600EE230E2EEA2F19F0EE0F0A94E9F708951E
:100556006F2F660F660B762F08957A9F702D6B9F0F
:10056600700DF89F700DE99F700D6A9F602D710DDB
:10057600FB9F600D711DE89F600D711D8827FA9F16
:10058600F02D610D781FEB9FF00D611D781FEA9F1E
:10059600E02DF10D681F781F08950024112490E1C5
:1005A600AA0FBB1F001C111C0E1A1F0A18F40E0EF0
:1005B6001F1E01C0A1609A9599F7FD01D00108950B
:1005C60037D0EBDF0EF4B8DF08953F934F935F9378
:1005D600002411244427552730E2AA0FBB1F881F89
:1005E600991F001C111C441F551F0E1A1F0A460B8B
:1005F600570B28F40E0E1F1E461F571F01C0A16081
:100606003A9559F7FD01BC01D001CA015F914F919E
:100616003F910895E894B7FF04C0A095B095119650
:100626006894F7FD89DFB9DFFD010EF485DF0895D3
:10063600E894F7FF02C080DF6894B7FF06C0A09574
:10064600B095119600F8039400FA0895ED91FD9186
:100656006D917D9108957E936E93FE93EE9308952A
:00000001FF
